:1000000027C1000032C7000005C70000D8C60000A5
:10001000ABC600007EC6000051C6000024C600002A
:10002000F7C5000045C1000043C1000041C1000008
:100030003FC100003DC100003BC1000039C10000CC
:1000400037C1000035C1000033C1000031C10000DC
:100050002FC100002DC100002BC100008FC5000082
:1000600027C10000F6C10000CBC1000021C1000083
:100070001FC100001DC100001BC1000019C100000C
:1000800017C1000015C1000013C1000011C100001C
:100090000FC100000DC100000BC1000009C100002C
:1000A00007C1000005C1000003C1000001C100003C
:1000B000FFC00000FDC00000FBC00000F9C0000050
:1000C000F7C00000F5C00000F3C00000F1C0000060
:1000D000EFC00000EDC00000EBC00000E9C0000070
:1000E000E7C00000B702BA02A902AD02B302F102F2
:1000F000BE02C202C802CC02D002D602DA02DE027E
:10010000F102E402E802EC02ED04F204F704010556
:100110000B05840515051D0525052F053905430526
:1001200052055C058405660570057A05000021000E
:10013000240027002A002D003000330001010000B8
:10014000040107010A0100002200250028002B00FD
:100150002E003100340002010000050108010B01EE
:10016000000020002300260029002C002F00320070
:100170000001000003010601090105050505070549
:1001800008080808020202020A0A08080404040413
:10019000010101010101010103030303030303033F
:1001A000040707070C0C0C0C0C0C0C0C02020202CE
:1001B00006060606060606060B0B0B0B0B0B0B0BB7
:1001C0000102102020080810204010204080020169
:1001D000020108040201010204081020408080404E
:1001E000201008040201800402018040201008044D
:1001F00002010804020101020408102040800102EB
:1002000004081020408000000A0B02090C0D0E08A3
:1002100007030401000000000000000000000000CF
:1002200000000000000000000000000000000000CE
:10023000000012111000000000000000000000008B
:100240000000000000000000000000007F0D7A0D9B
:1002500011241FBECFEFD1E2DEBFCDBF00E00CBF47
:1002600012E0A0E0B2E0E4E2F6E200E00BBF02C080
:1002700007900D92AC35B107D9F723E0ACE5B2E0B9
:1002800001C01D92A53BB207E1F711E0C7E2D1E042
:1002900000E006C021970109802FFE010E94D410C2
:1002A000C632D10780E00807A9F704D70C940113E0
:1002B000A7CECF92DF92EF92FF920F931F93CF932F
:1002C000DF936C017A018B01C0E0D0E0CE15DF0531
:1002D00089F0D8016D918D01D601ED91FC910190CD
:1002E000F081E02DC6011995892B11F47E0102C021
:1002F0002196ECCFC701DF91CF911F910F91FF9015
:10030000EF90DF90CF900895089580E090E00895F9
:100310000E94ED128BE792E003D121E0892B09F4D2
:1003200020E0822F0895EF92FF920F931F93CF93B7
:10033000DF93EC0181E0888F9B8D8C8D981305C035
:10034000E889F989808185FD23C0F62E0B8D10E0A8
:100350000F5F1F4F0F731127E02E8C8DE8120BC01B
:100360000FB607FCFACFE889F989808185FFF5CFC0
:10037000CE015FD2F2CF8B8DFE01E80FF11DE35A63
:10038000FF4FF0820B8FEA89FB898081806207C072
:10039000EE89FF896083E889F989808180648083A0
:1003A00081E090E0DF91CF911F910F91FF90EF904E
:1003B00008950F931F93CF93DF93EC018881998168
:1003C000009729F02A813B812617370788F48B0193
:1003D0006F5F7F4F0E940912009761F099838883B5
:1003E0001B830A832C813D81232B11F4FC01108295
:1003F00081E001C080E0DF91CF911F910F910895BE
:100400001F920F920FB60F9211240BB60F922F93DB
:100410003F934F935F936F937F938F939F93AF938C
:10042000BF93EF93FF938BE792E003D2FF91EF919D
:10043000BF91AF919F918F917F916F915F914F91FC
:100440003F912F910F900BBE0F900FBE0F901F90FA
:1004500018951F920F920FB60F9211240BB60F92A0
:100460002F938F939F93EF93FF93E0918B02F091E3
:100470008C028081E0919102F091920282FD12C083
:100480009081809194028F5F8F73209195028217E3
:1004900051F0E0919402F0E0E558FD4F958F809384
:1004A000940201C08081FF91EF919F918F912F91D4
:1004B0000F900BBE0F900FBE0F901F901895FC0170
:1004C000538D448D252F30E0842F90E0821B930BB9
:1004D000541710F0CF96089501970895FC01918D5F
:1004E000828D981761F0828DDF01A80FB11D5D9696
:1004F0008C91928D9F5F9F73928F90E008958FEF04
:100500009FEF0895FC01918D828D981731F0828DB7
:10051000E80FF11D858D90E008958FEF9FEF08950E
:10052000FC01918D228D892F90E0805C9F4F821B72
:1005300091098F739927089590E0FC013197E2317A
:10054000F10508F04EC08827EE58FF4F8F4F0C94EE
:10055000D410809180008F7703C0809180008F7DC0
:1005600080938000089580918000877FF9CF84B5C3
:100570008F7702C084B58F7D84BD08958091B000CF
:100580008F7703C08091B0008F7D8093B000089575
:10059000809190008F7707C0809190008F7D03C07D
:1005A00080919000877F8093900008958091A000B3
:1005B0008F7707C08091A0008F7D03C08091A0003D
:1005C000877F8093A0000895809120018F7707C0D6
:1005D000809120018F7D03C080912001877F8093CF
:1005E00020010895CF93DF93282F30E0F901EA5FCF
:1005F000FD4F8491F901E054FE4FD491F901E65882
:10060000FE4FC491CC2389F0811196DFEC2FF0E0EE
:10061000EE0FFF1FE05AFE4FA591B491EC91ED2330
:1006200081E090E021F480E002C080E090E0DF9182
:10063000CF9108950895CF93DF9380911E02D2DF6A
:10064000EC0180911C02CEDFC817D907A1F480917C
:10065000640290916502A0916602B09167020197D1
:10066000A109B1098093640290936502A093660288
:10067000B093670213C080915C0290915D02A091DB
:100680005E02B0915F020196A11DB11D80935C02D4
:1006900090935D02A0935E02B0935F02DF91CF91D1
:1006A0000895CF93DF9380911A029CDFEC01809133
:1006B000180298DF409164025091650260916602D1
:1006C00070916702C817D90729F44150510961098F
:1006D000710904C04F5F5F4F6F4F7F4F40936402BB
:1006E000509365026093660270936702DF91CF9129
:1006F0000895CF93DF938091160274DFEC0180910F
:10070000140270DF409160025091610260916202B8
:1007100070916302C817D90729F441505109610942
:10072000710904C04F5F5F4F6F4F7F4F409360026E
:10073000509361026093620270936302DF91CF91E4
:100740000895EF92FF920F931F93CF93DF931F9221
:100750001F92CDB7DEB7EE24E3948BE792E0E0DEA4
:10076000892B59F18BE792E0B9DEF82E89831A8242
:100770000091AF031091B0030F5F1F4FB8018BEAD8
:1007800093E017DE882399F02091AB033091AC03FE
:100790008091AF039091B003BE016F5F7F4F820FD6
:1007A000931F0E94FA121093B0030093AF038AE0E4
:1007B000F812D3CFE0927102D0CF0F900F90DF915B
:1007C000CF911F910F91FF90EF900895A3DD8111BC
:1007D00025C080E090E0892B41F080E090E0892BFB
:1007E00021F00E94000081111BC080E090E0892B65
:1007F00041F080E090E0892B21F00E9400008111FF
:1008000012C080E090E0892B99F080E090E0892B85
:1008100079F00E940000811109C0089592DFD9CFBC
:100820000E940000E2CF0E940000EBCF0C94000079
:100830000895FC01848DDF01A80FB11DA35ABF4F9D
:100840002C91848D90E001968F739927848FA689CF
:10085000B7892C93A089B1898C9180648C93938DF6
:10086000848D981306C00288F389E02D80818F7DE6
:1008700080830895CF93DF93EC01888D8823C1F0A6
:10088000EA89FB89808185FD05C0A889B9898C9199
:1008900086FD0EC00FB607FCF5CF808185FFF2CF35
:1008A000A889B9898C9185FFEDCFCE01C2DFE8CF51
:1008B000DF91CF9108951F93CF93DF93282F30E0DE
:1008C000F901EA5FFD4F8491F901E054FE4FD491A4
:1008D000F901E658FE4FC491CC23C1F0162F8111C7
:1008E0002BDEEC2FF0E0EE0FFF1FEA5BFE4FA59131
:1008F000B4918FB7F894111105C09C91ED2FE0953C
:10090000E92302C0EC91ED2BEC938FBFDF91CF91E7
:100910001F910895CF93DF9390E0FC01E054FE4FC8
:100920002491FC01E658FE4F8491882361F190E008
:10093000880F991FFC01E45DFE4FC591D491FC0125
:10094000EA5BFE4FA591B491611109C09FB7F8947D
:100950008881209582238883EC912E230BC06230FE
:1009600061F49FB7F8943881822F80958323888320
:10097000EC912E2B2C939FBF06C08FB7F894E88183
:100980002E2B28838FBFDF91CF9108951F93CF9394
:10099000DF93182FEB0161E0BDDF209711F460E0D9
:1009A00004C0CF3FD10531F461E0812FDF91CF91B9
:1009B0001F9181CFE12FF0E0EA5FFD4FE4914E2FD0
:1009C00050E0FA013197E231F10508F09DC0882727
:1009D000EC57FF4F8F4F0C94D41084B5806884BDC2
:1009E000C7BD97C084B5806284BDC8BD92C08091E8
:1009F0008000806880938000D0938900C093880035
:100A000088C080918000806280938000D0938B00AA
:100A1000C0938A007EC080918000886080938000AF
:100A2000D0938D00C0938C0074C08091B00080681A
:100A30008093B000C093B3006CC08091B00080621E
:100A40008093B000C093B40064C08091900080682F
:100A500080939000D0939900C09398005AC08091E1
:100A60009000806280939000D0939B00C0939A0086
:100A700050C080919000886080939000D0939D003A
:100A8000C0939C0046C08091A00080688093A00025
:100A90008091A0008F7B8093A000D093A900C09389
:100AA000A80037C08091A00080628093A000D093FE
:100AB000AB00C093AA002DC08091A00088608093F5
:100AC000A000D093AD00C093AC0023C08091200162
:100AD000806880932001D0932901C093280119C018
:100AE00080912001806280932001D0932B01C093DC
:100AF0002A010FC080912001886080932001D0934B
:100B00002D01C0932C0105C0C038D1050CF04CCF8D
:100B100046CFDF91CF911F9108953FB7F894809110
:100B2000770290917802A0917902B0917A0226B56D
:100B3000A89B05C02F3F19F00196A11DB11D3FBF15
:100B4000BA2FA92F982F8827820F911DA11DB11DA3
:100B5000BC01CD0142E0660F771F881F991F4A959F
:100B6000D1F708952FB7F8946091730270917402D1
:100B700080917502909176022FBF08951F920F9277
:100B80000FB60F9211242F933F938F939F93AF93A0
:100B9000BF938091730290917402A0917502B091FD
:100BA00076023091720223E0230F2D3720F4019654
:100BB000A11DB11D05C026E8230F0296A11DB11D80
:100BC000209372028093730290937402A093750233
:100BD000B09376028091770290917802A091790289
:100BE000B0917A020196A11DB11D80937702909376
:100BF0007802A0937902B0937A02BF91AF919F914E
:100C00008F913F912F910F900FBE0F901F901895CD
:100C10001F920F920FB60F9211240BB60F922F93C3
:100C20003F934F935F936F937F938F939F93AF9374
:100C3000BF93EF93FF93E0910E02F0910F0219958D
:100C4000FF91EF91BF91AF919F918F917F916F91A4
:100C50005F914F913F912F910F900BBE0F900FBE60
:100C60000F901F9018951F920F920FB60F9211249C
:100C70000BB60F922F933F934F935F936F937F9396
:100C80008F939F93AF93BF93EF93FF93E0910C02E9
:100C9000F0910D021995FF91EF91BF91AF919F9146
:100CA0008F917F916F915F914F913F912F910F9015
:100CB0000BBE0F900FBE0F901F9018951F920F92B2
:100CC0000FB60F9211240BB60F922F933F934F93B1
:100CD0005F936F937F938F939F93AF93BF93EF93A4
:100CE000FF93E0910202F09103021995FF91EF91B9
:100CF000BF91AF919F918F917F916F915F914F9134
:100D00003F912F910F900BBE0F900FBE0F901F9031
:100D100018951F920F920FB60F9211240BB60F92D7
:100D20002F933F934F935F936F937F938F939F93F3
:100D3000AF93BF93EF93FF93E0910002F091010214
:100D40001995FF91EF91BF91AF919F918F917F91F5
:100D50006F915F914F913F912F910F900BBE0F902C
:100D60000FBE0F901F9018951F920F920FB60F9203
:100D700011240BB60F922F933F934F935F936F9372
:100D80007F938F939F93AF93BF93EF93FF93E091E4
:100D90000A02F0910B021995FF91EF91BF91AF916B
:100DA0009F918F917F916F915F914F913F912F9183
:100DB0000F900BBE0F900FBE0F901F9018951F92B3
:100DC0000F920FB60F9211240BB60F922F933F93F1
:100DD0004F935F936F937F938F939F93AF93BF9343
:100DE000EF93FF93E0910802F09109021995FF91AA
:100DF000EF91BF91AF919F918F917F916F915F9193
:100E00004F913F912F910F900BBE0F900FBE0F90FF
:100E10001F9018951F920F920FB60F9211240BB6C8
:100E20000F922F933F934F935F936F937F938F9383
:100E30009F93AF93BF93EF93FF93E0910602F091DE
:100E400007021995FF91EF91BF91AF919F918F91FB
:100E50007F916F915F914F913F912F910F900BBEBA
:100E60000F900FBE0F901F9018951F920F920FB604
:100E70000F9211240BB60F922F933F934F935F93D2
:100E80006F937F938F939F93AF93BF93EF93FF9352
:100E9000E0910402F09105021995FF91EF91BF9145
:100EA000AF919F918F917F916F915F914F913F9102
:100EB0002F910F900BBE0F900FBE0F901F901895A3
:100EC000CF92DF92EF92FF920F931F93CF93DF9316
:100ED000EC01862F1E8A1D8A688379835B834A838F
:100EE0003D832C831F830E83F98AE88AD88ECF8AAC
:100EF00061E010DD61E08A810DDD60E08C810ADD5A
:100F000060E08E8107DD61E0888904DD60E0888132
:100F1000D2DC60E08A81CFDC60E08C81CCDC60E0F8
:100F20008E81C9DC8FEF90E09B8B8A8B81E08C8B6C
:100F30006FEF70E088892ADD8F89988D009769F4BA
:100F40008C819D8190931702809316028E819F81E0
:100F500090931502809314021EC08130910569F4AC
:100F60008C819D8190931B0280931A028E819F81B8
:100F700090931902809318020EC0029761F48C813D
:100F80009D8190931F0280931E028E819F8190937A
:100F90001D0280931C02188619861A861B86DF9113
:100FA000CF911F910F91FF90EF90DF90CF90089518
:100FB000009761F0FC0101900020E9F73197AF0143
:100FC000481B590BBC018BE792E073C980E090E0AD
:100FD00008958F929F92AF92BF920F931F93CF93DA
:100FE000DF93CDB7DEB7A1970FB6F894DEBF0FBE83
:100FF000CDBF19A2423008F44AE08E010F5D1F4FA9
:10100000842E912CA12CB12CA5019401FED7E62FA2
:10101000B901CA0101501109EA3014F4E05D01C0C0
:10102000E95CD801EC93232B242B252B69F7C8010D
:10103000BFDFA1960FB6F894DEBF0FBECDBFDF9124
:10104000CF911F910F91BF90AF909F908F90089577
:10105000E0917B02F0917C020190F081E02D682FFD
:101060008BE792E01994CF92DF92EF92FF92CF93A9
:10107000DF9397FF17C06B017C018DE2E9DFEC0184
:1010800066277727CB016C197D098E099F094AE0F5
:10109000A0DF8C0F9D1FDF91CF91FF90EF90DF902D
:1010A000CF9008954AE0DF91CF91FF90EF90DF90CD
:1010B000CF908FCFCF93DF93CDB7DEB761970FB6C9
:1010C000F894DEBF0FBECDBF789484B5826084BD36
:1010D00084B5816084BD85B5826085BD85B581603C
:1010E00085BD80916E00816080936E0010928100BA
:1010F0008091810082608093810080918100816075
:101100008093810080918000816080938000809135
:10111000B10084608093B1008091B00081608093C1
:10112000B000809191008260809391008091910045
:101130008160809391008091900081608093900005
:101140008091A10082608093A1008091A1008160C4
:101150008093A1008091A00081608093A000809185
:10116000210182608093210180912101816080931F
:1011700021018091200181608093200180917A007B
:10118000846080937A0080917A00826080937A00F4
:1011900080917A00816080937A0080917A008068E3
:1011A00080937A001092C100E0918B02F0918C0242
:1011B00082E08083E0918702F09188021082E091C2
:1011C0008902F0918A0280E1808310929302E0917B
:1011D0008F02F091900286E08083E0918D02F09181
:1011E0008E02808180618083E0918D02F0918E0279
:1011F000808188608083E0918D02F0918E028081F1
:1012000080688083E0918D02F0918E0280818F7DD5
:10121000808361E086E17EDB60E086E14CDB60E0BC
:1012200087E178DB89E793E09093070280930602D9
:1012300080916900837F846080936900E99A81E5E9
:1012400093E09093050280930402809169008C7F63
:10125000816080936900E89A8BE193E090930B02A0
:1012600080930A02809169008F7380648093690083
:10127000EB9A80915E030091420310914303811128
:1012800043C0D801CD90DD90ED90FC90C0924A0310
:10129000D0924B03E0924C03F0924D03E091400357
:1012A000F091410380819181A281B38180934E03AB
:1012B00090934F03A0935003B093510380905A032F
:1012C00090905B03A0905C03B0905D03A501940136
:1012D000C701B60161D718167CF080905603909034
:1012E0005703A0905803B0905903A5019401C7017A
:1012F000B6014CD587FF08C080924A0390924B03F9
:10130000A0924C03B0924D0381E080935E03C12C08
:1013100030E5D32E33ECE32E37ECF32EC092560398
:10132000D0925703E0925803F0925903412C40E5C4
:10133000542E43EC642E47E4742E40925A0350928C
:101340005B0360925C0370925D03F8018080918082
:10135000A280B380A3019201C501B4011DD7181664
:101360003CF4D8014D925D926D927C9213970EC021
:1013700020E030E543EC57ECC501B40107D587FF09
:1013800005C0F801C082D182E282F38280904A03D4
:1013900090904B03A0904C03B0904D03C0905A0323
:1013A000D0905B03E0905C03F0905D03A701960191
:1013B000C501B401F1D618167CF0C0905603D09048
:1013C0005703E0905803F0905903A7019601C50117
:1013D000B401DCD487FF08C0C0924A03D0924B030B
:1013E000E0924C03F0924D0368EC70E08BEA93E0DE
:1013F0000E94D90180917002882361F161E086E149
:101400005ADA8BDB4B015C0124E6C22ED12CE12C95
:10141000F12C83DBDC01CB0188199909AA09BB09EE
:10142000883E9340A105B10558F0F1E0CF1AD108EC
:10143000E108F10828EE820E23E0921EA11CB11CE7
:10144000C114D104E104F10421F760E086E133DA4C
:101450001092700260916C0270916D0280916E0228
:1014600090916F0299D4609318037093190380933D
:101470001A0390931B038091640290916502A091DE
:101480006602B091670289839A83AB83BC83BC01F7
:10149000CD0182D4609320037093210380932203B3
:1014A0009093230380915E03882309F432C15ADBB1
:1014B0006D837E838F839887809146039091470345
:1014C000A0914803B09149034D815E816F81788579
:1014D000481B590B6A0B7B0B80915203909153036D
:1014E000A0915403B0915503481759076A077B0729
:1014F00008F40FC1E0914003F09141034080518016
:1015000062807380E0914403F0914503A30192014E
:101510006081718182819381A9D56B017C012091C9
:101520004E0330914F034091500350915103C3013A
:10153000B2019CD569877A878B879C872091340379
:10154000309135034091360350913703C701B601FE
:1015500082D420914A0330914B0340914C03509127
:101560004D0385D54B015C0160934A0370934B0397
:1015700080934C0390934D0330905F0331101AC059
:101580002091300330913103409132035091330365
:1015900069857A858B859C855ED49B01AC01C501EC
:1015A000B40164D560934A0370934B0380934C035A
:1015B00090934D0380914A0390914B03A0914C036B
:1015C000B0914D038D879E87AF87B88B00915A03EA
:1015D00010915B0390915C03998B20905D039801BF
:1015E000492F522D6D857E858F859889D5D5181602
:1015F00064F4C801A989B22D80934A0390934B03E8
:10160000A0934C03B0934D0319C080905603909063
:101610005703A0905803B0905903A50194016D851C
:101620007E858F859889B2D387FF08C080924A0350
:1016300090924B03A0924C03B0924D03332071F073
:1016400020913003309131034091320350913303A4
:10165000C701B60100D46B017C0103C0C12CD12CA1
:101660007601209138033091390340913A0350912B
:101670003B0369857A858B859C85EDD39B01AC0105
:1016800060914A0370914B0380914C0390914D03FC
:10169000EDD49B01AC01C701B601E9D46B017C011B
:1016A00098014989522D78D51816A4F00091560357
:1016B00010915703A0915803A98B209059039801CA
:1016C0004A2F522DB601C70161D387FD03C08601A1
:1016D000E98A2F2CE0914203F0914303C801A989C4
:1016E000B22D80839183A283B38340924E035092A4
:1016F0004F0360925003709251038D819E81AF81A0
:10170000B8858093460390934703A0934803B09312
:10171000490360911C0370911D0380911E039091F9
:101720001F0309D59B01AC01285237444A4F5F4F34
:10173000AEEFB1E060D46135AEE87A07A4EF8A0776
:10174000AFEF9A07BCF06035BEEE7B07B7ED8B07B5
:10175000B6E19B07B4F420EB31E74BE050E02FD427
:10176000CA01B9016F5F71098109910915D36B0134
:101770007C010DC0C12CD12C9FE7E92E93ECF92EF2
:1017800006C0C12CD12C8FE7E82E83E4F82EC701C8
:10179000B601D1D45B0177FF04C0AA24BB24A61AEA
:1017A000B70AB0927303A092720311E020E030E018
:1017B000A901C701B601F0D418160CF010E010937F
:1017C00074038091770390917803009749F4809196
:1017D000600290916102A0916202B091630212C016
:1017E0008130910529F489819A81AB81BC810AC03D
:1017F000029781F480915C0290915D02A0915E025B
:10180000B0915F028093680390936903A0936A0389
:10181000B0936B03B50180917003B8D860916803F1
:101820007091690380916A0390916B031CDC8EE3D5
:1018300092E0BEDB8091680390916903A0916A03F6
:10184000B0916B03009168021091690220916A02C5
:1018500030916B02BC01CD01601B710B820B930BAD
:1018600002DC8EE392E0A4DB60916C0370916D0367
:1018700080916E0390916F03F6DB8EE392E098DB2C
:10188000A7019601C701B6018BD4882319F082E421
:1018900092E018C046015701E894B7F82FEF3FEFE8
:1018A0004FE75FE7C501B4017BD481110DC02FEF75
:1018B0003FEF4FE75FE7C501B40168D2181624F483
:1018C00086E492E075DB60C02FEF3FEF4FE75FE407
:1018D000C701B60161D418161CF48AE492E0F2CF75
:1018E0002FEF3FEF4FE75FECC701B6014FD287FD07
:1018F000F4CF20E030E0A901C701B60147D287FF4D
:1019000006C08DE2A5DBF7FAF094F7F8F0942AE030
:1019100037ED43EA5BE3C701B601A9D34B015C0194
:101920000FD46B017C0136D29B01AC01C501B4011F
:101930009DD34B015C014AE0C701B6014ADB8EE250
:1019400087DB20E030E040E251E4C501B40183D2FE
:101950006B017C01F5D34B01A12CB12C4AE0C501F0
:10196000B40137DBC501B40115D29B01AC01C7013D
:10197000B6017CD320E030E040E251E46CD2E0D309
:1019800080E090E04AE025DB8EE392E011DB60919D
:10199000720370917303072E000C880B990B63DBA5
:1019A0008EE392E005DB6091770370917803072E58
:1019B000000C880B990B57DB8EE392E0F9DA8091EB
:1019C000680390916903A0916A03B0916B038093BF
:1019D000680290936902A0936A02B0936B028091AF
:1019E00074036091720370917303882389F080916E
:1019F00070030E94C60460E0809160030E945B0453
:101A000061E0809162030E945B048EE492E010C06A
:101A1000809170030E94C60461E0809160030E947F
:101A20005B0460E0809162030E945B0486E592E0C3
:101A3000BFDA83E592E0BCDA95D8009110021091EC
:101A400011022091120230911302DC01CB01801BA4
:101A5000910BA20BB30B893E9340A105B10508F48D
:101A600046C080D8609310027093110280931202D6
:101A70009093130260916002709161028091620202
:101A800090916302F0DA83E592E092DA80916C0241
:101A900090916D02A0916E02B0916F02892B8A2BFA
:101AA0008B2B69F480E694E0A0E0B0E080936C02B8
:101AB00090936D02A0936E02B0936F0208C01092D3
:101AC0006C0210926D0210926E0210926F02809161
:101AD0006C0290916D02A0916E02B0916F028093A2
:101AE0006C0390936D03A0936E03B0936F030E94F9
:101AF000E60380CC8091AB039091AC03F2C3CF920C
:101B0000DF92EF92FF920F931F9310927E0210923A
:101B10007D0288EE93E0A0E0B0E080937F02909396
:101B20008002A0938102B09382028AE292E09093B5
:101B30007C0280937B0285EC90E0909388028093F6
:101B4000870284EC90E090938A028093890280EC73
:101B500090E090938C0280938B0281EC90E09093C4
:101B60008E0280938D0282EC90E09093900280939D
:101B70008F0286EC90E090939202809391021092F3
:101B8000940210929502109296021092970210926F
:101B9000AC031092AB031092AE031092AD031092FF
:101BA000B0031092AF0360E070E08BEA93E00E9414
:101BB000D9012091AB033091AC03811112C02115E2
:101BC000310511F0C9018DD31092AC031092AB0313
:101BD0001092B0031092AF031092AE031092AD03B7
:101BE00008C01092B0031092AF0365E572E0C9011E
:101BF00001D5C12CD12C8EE2E82EF12C09E110E0A8
:101C000024E130E04FE250E067E270E082E993E0E7
:101C100057D9CC24C394D12C2CE2E22EF12C0FE125
:101C200010E025E130E043E350E061E370E089E754
:101C300093E046D932E0C32ED12C4DE2E42EF12CB4
:101C40000BE110E023E130E04BE250E069E270E0AC
:101C500080E693E035D98CE193E090934303809341
:101C6000420380E293E0909341038093400388E134
:101C700093E0909345038093440310925E03109287
:101C8000560310925703109258031092590380E0A4
:101C900090E0AFE7B3E480935A0390935B03A09383
:101CA0005C03B0935D0384E690E0A0E0B0E0809335
:101CB000520390935303A0935403B093550310928F
:101CC0003D0310923C0381E090E090933F038093AA
:101CD0003E0380935F0380E090E0A8ECB2E4809341
:101CE000240390932503A0932603B0932703109217
:101CF00028031092290310922A0310922B0340E02C
:101D000050E060E971E440932C0350932D036093FD
:101D10002E0370932F038093300390933103A0938D
:101D20003203B093330310923403109235031092B0
:101D300036031092370380E090E0A4E3B3E480938D
:101D4000380390933903A0933A03B0933B030E9466
:101D5000B205009152031091530320915403309126
:101D60005503DC01CB01801B910BA20BB30B8093BD
:101D7000460390934703A0934803B09349031F91F0
:101D80000F91FF90EF90DF90CF90089540D008F42E
:101D900081E00895E89409C097FB3EF49095809502
:101DA000709561957F4F8F4F9F4F9923A9F0F92F21
:101DB00096E9BB279395F695879577956795B7959F
:101DC000F111F8CFFAF4BB0F11F460FF1BC06F5F85
:101DD0007F4F8F4F9F4F16C0882311F096E911C097
:101DE000772321F09EE8872F762F05C0662371F0B8
:101DF00096E8862F70E060E02AF09A95660F771FCC
:101E0000881FDAF7880F9695879597F90895990FA7
:101E10000008550FAA0BE0E8FEEF16161706E807B4
:101E2000F907C0F012161306E407F50798F0621BD5
:101E3000730B840B950B39F40A2661F0232B242BAA
:101E4000252B21F408950A2609F4A140A6958FEFC9
:101E5000811D811D08950BD078C069D028F06ED007
:101E600018F0952309F05AC05FC01124A2C07ED09B
:101E7000A0F3959FD1F3950F50E0551F629FF0019D
:101E8000729FBB27F00DB11D639FAA27F00DB11DF6
:101E9000AA1F649F6627B00DA11D661F829F22277F
:101EA000B00DA11D621F739FB00DA11D621F839F06
:101EB000A00D611D221F749F3327A00D611D231FDC
:101EC000849F600D211D822F762F6A2F11249F572A
:101ED00050408AF0E1F088234AF0EE0FFF1FBB1F4D
:101EE000661F771F881F91505040A9F79E3F5105EC
:101EF00070F014C05EC05F3FECF3983EDCF3869553
:101F000077956795B795F795E7959F5FC1F7FE2B96
:101F1000880F911D9695879597F9089597F99F6772
:101F200080E870E060E008959FEF80EC0895002461
:101F30000A941616170618060906089500240A942E
:101F400012161306140605060895092E0394000CB4
:101F500011F4882352F0BB0F40F4BF2B11F460FF43
:101F600004C06F5F7F4F8F4F9F4F089557FD90586C
:101F7000440F551F59F05F3F71F04795880F97FB4D
:101F8000991F61F09F3F79F0879508951216130607
:101F90001406551FF2CF4695F1DF08C01616170636
:101FA0001806991FF1CF869571056105089408956B
:101FB000E894BB2766277727CB0197F90895052E6C
:101FC00097FB16F400940FD057FD05D01ED007FCE8
:101FD00002D046F408C050954095309521953F4F6A
:101FE0004F4F5F4F089590958095709561957F4F05
:101FF0008F4F9F4F08952BD0A59F900DB49F900DAC
:10200000A49F800D911D11240895A1E21A2EAA1BF0
:10201000BB1BFD010DC0AA1FBB1FEE1FFF1FA21798
:10202000B307E407F50720F0A21BB30BE40BF50B95
:10203000661F771F881F991F1A9469F7609570951E
:10204000809590959B01AC01BD01CF010895A29FA1
:10205000B001B39FC001A39F700D811D1124911D7C
:10206000B29F700D811D1124911D08955058BB27FA
:10207000AA270ED06ACF5BDF30F060DF20F031F4AA
:102080009F3F11F41EF450CF0EF4E095E7FB46CFCE
:10209000E92F6CDF80F3BA1762077307840795078F
:1020A00018F071F49EF584CF0EF4E0950B2EBA2F44
:1020B000A02D0B01B90190010C01CA01A00111244E
:1020C000FF27591B99F0593F50F4503E68F11A16FA
:1020D000F040A22F232F342F4427585FF3CF46958B
:1020E00037952795A795F0405395C9F77EF41F16AD
:1020F000BA0B620B730B840BBAF09150A1F0FF0F77
:10210000BB1F661F771F881FC2F70EC0BA0F621F62
:10211000731F841F48F4879577956795B795F79552
:102120009E3F08F0B3CF9395880F08F09927EE0FE4
:1021300097958795089504D06894B1113ACF089582
:102140001DDF88F09F5790F0B92F9927B751A0F065
:10215000D1F0660F771F881F991F1AF0BA95C9F73B
:1021600012C0B13081F024DFB1E0089521CF672F94
:10217000782F8827B85F39F0B93FCCF386957795EB
:102180006795B395D9F73EF49095809570956195D4
:102190007F4F8F4F9F4F08953ADE08F48FEF0895D9
:1021A00036DE880B990B0895EE0FFF1F881F8BBF3B
:1021B0000790F691E02D1994CF93DF93823091052B
:1021C00010F482E090E0E091B303F091B40320E0DA
:1021D00030E0C0E0D0E0309711F1408151814817E4
:1021E0005907C0F04817590761F4828193812097FD
:1021F00019F09B838A832BC09093B4038093B3031D
:1022000026C02115310519F04217530718F49A0119
:10221000BE01DF01EF010280F381E02DDCCF21154B
:10222000310509F1281B390B2430310590F4129641
:102230008D919C9113976115710521F0FB0193839A
:10224000828304C09093B4038093B303FD0132965C
:1022500044C0FD01E20FF31F819391932250310995
:102260002D933C933AC02091B1033091B203232BBC
:1022700041F420912202309123023093B203209343
:10228000B10320912002309121022115310541F442
:102290002DB73EB74091240250912502241B350BE7
:1022A000E091B103F091B203E217F307A0F42E1B03
:1022B0003F0B2817390778F0AC014E5F5F4F2417AA
:1022C000350748F04E0F5F1F5093B2034093B103A0
:1022D0008193919302C0E0E0F0E0CF01DF91CF91D4
:1022E00008950F931F93CF93DF93009709F48CC049
:1022F000FC013297138212820091B3031091B40350
:102300000115110581F420813181820F931F2091E5
:10231000B1033091B2032817390779F5F093B2036E
:10232000E093B10371C0D80140E050E0AE17BF07A1
:1023300050F412962D913C911397AD012115310562
:1023400009F1D901F3CF9D01DA0133832283608142
:102350007181860F971F8217930769F4EC0128811A
:102360003981260F371F2E5F3F4F318320838A81AB
:102370009B8193838283452B29F4F093B403E093EC
:10238000B30342C01396FC93EE931297ED0149916B
:1023900059919E01240F351FE217F30771F48081D4
:1023A0009181840F951F029611969C938E93828142
:1023B000938113969C938E931297E0E0F0E0D801FE
:1023C00012968D919C911397009719F0F8018C014A
:1023D000F6CF8D919C9198012E5F3F4F820F931FF6
:1023E0002091B1033091B2032817390769F430976F
:1023F00029F41092B4031092B30302C01382128224
:102400001093B2030093B103DF91CF911F910F910D
:1024100008956F927F928F929F92AF92BF92CF92C8
:10242000DF92EF92FF920F931F93CF93DF93EC0114
:10243000009781F4CB01DF91CF911F910F91FF9015
:10244000EF90DF90CF90BF90AF909F908F907F9054
:102450006F90B2CEFC01E60FF71F9C0122503109AC
:10246000E217F30708F4A8C0D9010D911C91119748
:1024700006171707A8F00530110508F49BC0C8011E
:1024800004978617970708F495C002501109061B98
:10249000170B019311936D937C93CF0122DF8AC0B8
:1024A0005B01A01AB10A4C01800E911EA091B303EA
:1024B000B091B40340E050E0E12CF12C109709F406
:1024C0004AC0A815B905D1F56D907C9011976301AC
:1024D00082E0C80ED11CCA14DB0480F1A3014A19A2
:1024E0005B096A0182E0C80ED11C1296BC9012975B
:1024F0001396AC91B5E0CB16D10440F0B282A38321
:1025000051834083D9016D937C930AC00E5F1F4FA6
:10251000C301800F911FF90191838083EB2DFA2F66
:10252000E114F10431F0D7011396FC93EE93129766
:1025300041C0F093B403E093B3033CC08D919C91F0
:1025400011974817590708F4AC017D0112960D90B8
:10255000BC91A02DB3CF8091B1039091B2038815A7
:102560009905E1F446175707C8F48091200290912D
:102570002102009741F48DB79EB7409124025091FB
:102580002502841B950BE817F907B0F4F093B2030A
:10259000E093B103F901718360830CC0CB010CDEC1
:1025A0007C01009749F0A801BE011BD0CE0199DE45
:1025B000C70104C0CE0102C080E090E0DF91CF915E
:1025C0001F910F91FF90EF90DF90CF90BF90AF9051
:1025D0009F908F907F906F90089581E090E0F894A5
:1025E00010C0FB01DC0102C001900D92415050402F
:1025F000D8F70895FB01DC0101900D920020E1F76E
:10260000089511E0C7E2D1E000E005C0802FFE018F
:10261000CBDD2196011DC832D10780E00807B1F754
:04262000F894FFCF5C
:102624001A031A031A031A031A031A031A031A03BE
:10263400A015FFFFFFFFFFFFFFFFFFFFFFFFFFFFEF
:102644000000B503800000000000930159015F02FF
:102654003A0490026E028202640000001200202CF0
:1026640020006E616E00696E66006F76660020431E
:0C2674005720000D0A00204343572000AF
:020000023000CC
:10E000000D9489F10D94B2F10D94B2F10D94B2F129
:10E010000D94B2F10D94B2F10D94B2F10D94B2F1F0
:10E020000D94B2F10D94B2F10D94B2F10D94B2F1E0
:10E030000D94B2F10D94B2F10D94B2F10D94B2F1D0
:10E040000D94B2F10D94B2F10D94B2F10D94B2F1C0
:10E050000D94B2F10D94B2F10D94B2F10D94B2F1B0
:10E060000D94B2F10D94B2F10D94B2F10D94B2F1A0
:10E070000D94B2F10D94B2F10D94B2F10D94B2F190
:10E080000D94B2F10D94B2F10D94B2F10D94B2F180
:10E090000D94B2F10D94B2F10D94B2F10D94B2F170
:10E0A0000D94B2F10D94B2F10D94B2F10D94B2F160
:10E0B0000D94B2F10D94B2F10D94B2F10D94B2F150
:10E0C0000D94B2F10D94B2F10D94B2F10D94B2F140
:10E0D0000D94B2F10D94B2F10D94B2F10D94B2F130
:10E0E0000D94B2F141546D656761323536300041AF
:10E0F000726475696E6F206578706C6F72657220DE
:10E1000073746B3530305632206279204D4C530099
:10E11000426F6F746C6F616465723E004875683F52
:10E1200000436F6D70696C6564206F6E203D200048
:10E130004350552054797065202020203D20005FF9
:10E140005F4156525F415243485F5F3D2000415658
:10E1500052204C696243205665723D20004743437C
:10E160002056657273696F6E203D20004350552024
:10E1700049442020202020203D20004C6F7720663D
:10E18000757365202020203D20004869676820665F
:10E190007573652020203D200045787420667573D6
:10E1A00065202020203D20004C6F636B2066757336
:10E1B000652020203D20004D617220203720323024
:10E1C000313300312E362E3800342E332E350056A2
:10E1D00023202020414444522020206F7020636F70
:10E1E00064652020202020696E73747275637469E1
:10E1F0006F6E2061646472202020496E74657272B3
:10E20000757074006E6F20766563746F7200726A49
:10E210006D702020006A6D70200057686174207056
:10E220006F72743A00506F7274206E6F7420737541
:10E2300070706F72746564004D7573742062652030
:10E2400061206C6574746572002000577269747483
:10E25000696E672045450052656164696E672045B7
:10E26000450045452065727220636E743D00504F35
:10E27000525400303D5A65726F2061646472003FF1
:10E280003D43505520737461747300403D454550C3
:10E29000524F4D207465737400423D426C696E6B41
:10E2A000204C454400453D44756D70204545505215
:10E2B0004F4D00463D44756D7020464C415348001B
:10E2C000483D48656C70004C3D4C69737420492F83
:10E2D0004F20506F72747300513D51756974005234
:10E2E0003D44756D702052414D00563D73686F7707
:10E2F00020696E7465727275707420566563746FF0
:10E30000727300593D506F727420626C696E6B00BD
:10E310002A0011241FBECFEFD1E2DEBFCDBF01E046
:10E320000CBF12E0A0E0B2E0EEE1FDEF03E00BBFB6
:10E3300002C007900D92A030B107D9F712E0A0E01B
:10E34000B2E001C01D92AE30B107E1F70F9460F367
:10E350000D948DFE01E20EBF0FEF0DBF11241FBE05
:10E360000D9460F30D9400F020E030E040ED57E0B4
:10E3700005C0FA013197F1F72F5F3F4F2817390792
:10E38000C0F308959C01260F311DC901A0E0B0E043
:10E390002F5F3F4FABBFFC018791882361F08093D3
:10E3A000C6008091C00086FFFCCF8091C0008064D1
:10E3B0008093C000EACF08958DE08093C6008091DD
:10E3C000C00086FFFCCF8091C00080648093C000B5
:10E3D0008AE08093C6008091C00086FFFCCF8091C8
:10E3E000C00080648093C00008950F94C2F10F9420
:10E3F000DCF10895FC019081992359F09093C600B7
:10E400008091C00086FFFCCF8091C0008064809323
:10E41000C0003196992379F70895282F982F929567
:10E420009F70892F805D8A3308F0895F8093C600D2
:10E430008091C00086FFFCCF8091C00080648093F3
:10E44000C000822F8F70982F905D9A3308F0995FEB
:10E450009093C6008091C00086FFFCCF8091C000E1
:10E4600080648093C00008959C01FB01853691056E
:10E470001CF46330710594F0C90164E670E00F94F8
:10E480002EFE605D7F4F6093C6008091C00086FFC6
:10E49000FCCF8091C00080648093C0002B30310598
:10E4A00014F43297B4F0C90164E670E00F942EFEC4
:10E4B0006AE070E00F942EFE605D7F4F6093C600AF
:10E4C0008091C00086FFFCCF8091C0008064809363
:10E4D000C000C9016AE070E00F942EFEC0968093E0
:10E4E000C6008091C00086FFFCCF8091C000806490
:10E4F0008093C00008951F93182F8EE692EE60E07F
:10E500000F94C2F11093C6008091C00086FFFCCF2B
:10E510008091C00080648093C0000F94DCF11F9153
:10E5200008952F923F924F925F926F927F928F92B7
:10E530009F92AF92BF92CF92DF92EF92FF920F9392
:10E540001F93DF93CF93CDB7DEB762970FB6F894E2
:10E55000DEBF0FBECDBF382E622ECA01DB015C01CB
:10E560006D01772420E2222E2E010894411C511CBB
:10E570008BC081E0A81680E0B80681E0C80680E084
:10E58000D80628F0C601AA27BB270F940DF2BB2797
:10E59000AD2D9C2D8B2D0F940DF28A2D0F940DF225
:10E5A0002092C6008091C00086FFFCCF8091C00001
:10E5B00080648093C0009DE29093C6008091C0006B
:10E5C00086FFFCCF8091C00080648093C0002092C1
:10E5D000C6008091C00086FFFCCF8091C00080649F
:10E5E0008093C00019828601750188249924A1E0D6
:10E5F0003A1651F03A1620F0B2E03B1661F409C029
:10E600000BBFF701779007C0C7010F9477FE782EF4
:10E6100002C0F7017080872D0F940DF22092C60082
:10E620008091C00086FFFCCF8091C0008064809301
:10E63000C000872D8052F401EF70F0708F3520F408
:10E64000E40DF51D708204C0E40DF51D8EE280839B
:10E650000894E11CF11C011D111D0894811C911CE2
:10E6600090E18916910409F0C2CF80E190E0A0E02A
:10E67000B0E0A80EB91ECA1EDB1E198AC2010F9493
:10E68000FAF10F94DCF16A94662009F072CF629679
:10E690000FB6F894DEBF0FBECDBFCF91DF911F91B3
:10E6A0000F91FF90EF90DF90CF90BF90AF909F9031
:10E6B0008F907F906F905F904F903F902F90089534
:10E6C0002F923F924F925F926F927F928F929F9282
:10E6D000AF92BF92CF92DF92EF92FF920F931F9370
:10E6E000DF93CF93CDB7DEB7CD53D1400FB6F894BB
:10E6F000DEBF0FBECDBF01E20EBF0FEF0DBF94B75F
:10E70000F894A89514BE80916000886180936000A1
:10E7100010926000789493FF05C0E0910002F091A0
:10E7200001021995279A2F9A8091C00082608093E8
:10E73000C00080E18093C40088E18093C1000000A4
:10E74000EE24FF24870144E0A42EB12CCC24DD2448
:10E7500024C0C5010197F1F70894E11CF11C011DCB
:10E76000111D21E2E2162EE4F20620E0020720E06D
:10E77000120718F031E0C32ED12CC801B70127ECE5
:10E780003BE140E050E00F9441FE611571058105C9
:10E79000910519F485B1805885B98091C00087FD35
:10E7A00003C0C114D104A9F2A6014F5F5F4FC25E3E
:10E7B000DE4F59834883CE51D140C25EDE4F8881FF
:10E7C0009981CE51D140019711F00D9410FEC05D9A
:10E7D000DE4F19821882C053D14060E0C15DDE4F28
:10E7E0001882CF52D14088249924C35DDE4F19820C
:10E7F0001882CD52D140C05EDE4F188219821A8233
:10E800001B82C052D140CE5CDE4F188219821A8220
:10E810001B82C253D140EE24FF2487010BBFF701B6
:10E8200007911691C45CDE4F19830883CC53D14005
:10E830000D940BFEC25EDE4F28813981CE51D1404E
:10E840002130310509F52091C600C25EDE4F1982E4
:10E850001882CE51D14022C02F5F3F4F4F4F5F4FA4
:10E86000213082E138078AE7480780E0580780F0C6
:10E87000C45CDE4FE881F981CC53D140EF5FFF4F9C
:10E8800019F0EE27FF27099420E030E040E050E047
:10E890008091C00087FFE0CF2091C600C35DDE4FAE
:10E8A00048815981CD52D1404F5F5F4FC35DDE4FEC
:10E8B00059834883CD52D140213209F063C64A3092
:10E8C000510508F05FC60894811C911C53E0851621
:10E8D000910409F059C600E010E018C081E280936D
:10E8E000C6008091C00086FFFCCF8091C00080648C
:10E8F0008093C0002F5F3F4F2931310579F70F9486
:10E90000DCF10F5F1F4F0530110519F020E030E0FA
:10E91000E5CF10920A0210920B0210920C02109294
:10E920000D02109206021092070210920802109235
:10E930000902109202021092030210920402109235
:10E9400005028FEE90EE60E00F94F5F180E191EE1C
:10E9500060E00F94C2F18091C00087FFFCCF9091DE
:10E96000C600903608F09F759032B8F09093C600BC
:10E970008091C00086FFFCCF8091C00080648093AE
:10E98000C000A0E2A093C6008091C00086FFFCCF2B
:10E990008091C00080648093C000983409F4D7C18E
:10E9A0009934B8F4923409F459C1933458F490333B
:10E9B00019F1903308F4E3C59F33A1F1903409F0C5
:10E9C000DEC5BDC0953409F470C1963409F0D7C5D1
:10E9D00098C1923509F42BC2933538F49C3409F46C
:10E9E000F5C1913509F0CBC518C2963509F445C279
:10E9F000993509F0C4C567C483E792EE62E00F94CD
:10EA0000F5F110920602109207021092080210927D
:10EA1000090210920A0210920B0210920C0210923C
:10EA20000D0213C18FE792EE62E00F94F5F18FEEC5
:10EA300090EE60E00F94F5F181E291EE60E00F94CA
:10EA4000C2F187EB91EE60E00F94F5F180E391EE77
:10EA500060E00F94C2F184EE90EE60E00F94F5F167
:10EA60008FE391EE60E00F94C2F186E090E061E008
:10EA700070E00F9434F20F94DCF18DE591EE60E0DC
:10EA80000F94C2F189EC91EE60E00F94F5F18EE401
:10EA900091EE60E00F94C2F183EC91EE60E00F9490
:10EAA000F5F18CE691EE60E00F94C2F18EE10F94E7
:10EAB0000DF288E90F940DF281E00F940DF20F949E
:10EAC000DCF18BE791EE60E00F94C2F119E0E0E039
:10EAD000F0E010935700E4918E2F0F940DF20F94F5
:10EAE000DCF18AE891EE60E00F94C2F1E3E0F0E03F
:10EAF00010935700E4918E2F0F940DF20F94DCF1D8
:10EB000089E991EE60E00F94C2F1E2E0F0E0109349
:10EB10005700E4918E2F0F940DF20F94DCF188EAE8
:10EB200091EE60E00F94C2F1E1E0F0E01093570045
:10EB30001491812F0F940DF20F94DCF107CF8BE825
:10EB400092EE62E00F94F5F18BE492EE60E00F94A8
:10EB5000F5F10F94DCF100E010E019C0C8016F2D51
:10EB60000F947FFEFF2031F489E492EE60E00F9471
:10EB7000C2F10BC0F092C6008091C00086FFFCCFAE
:10EB80008091C00080648093C0000F5F1F4FC80158
:10EB900081519F41A0E0B0E0ABBFFC01F790BAE229
:10EBA000FB1621F0E2E000301E07C1F60F94DCF105
:10EBB0000F94DCF187E592EE60E00F94F5F10F948D
:10EBC000DCF1CC24DD2400E010E01EC0C8010F946D
:10EBD00077FEF82E882331F489E492EE60E00F94FA
:10EBE000C2F10BC08093C6008091C00086FFFCCFAD
:10EBF0008091C00080648093C000FE1419F00894D6
:10EC0000C11CD11C0F5F1F4FC80181519F41A0E063
:10EC1000B0E0ABBFFC01E790FAE2EF1621F022E092
:10EC20000030120799F60F94DCF10F94DCF182E6C4
:10EC300092EE60E00F94C2F1C60161E070E00F94C3
:10EC400034F20F94DCF10F94DCF110920202109276
:10EC50000302109204021092050278CE89E992EE26
:10EC600062E00F94F5F1279A2F9A16C02F9880E052
:10EC700090E0E0EDF7E03197F1F7019684369105E9
:10EC8000C1F72F9A80E090E0E0EDF7E03197F1F7DF
:10EC9000019684369105C1F78091C00087FFE6CFC9
:10ECA0008091C00087FFFCCF64C485EA92EE62E0E9
:10ECB0000F94F5F140910202509103026091040219
:10ECC0007091050281E020E10F9491F2809102029F
:10ECD00090910302A0910402B091050280509F4FD1
:10ECE000AF4FBF4F8093020290930302A0930402A0
:10ECF000B093050280509041A040B04008F426CE69
:10ED0000A4CF83EB92EE62E00F94F5F140910602FE
:10ED100050910702609108027091090280E020E1A1
:10ED20000F9491F28091060290910702A09108023F
:10ED3000B091090280509F4FAF4FBF4F80930602A2
:10ED400090930702A0930802B0930902FFCD80ECD4
:10ED500092EE62E00F94F5F183E792EE60E00F949B
:10ED6000F5F18FE792EE60E00F94F5F18BE892EE0B
:10ED700060E00F94F5F189E992EE60E00F94F5F10F
:10ED800085EA92EE60E00F94F5F183EB92EE60E09D
:10ED90000F94F5F180EC92EE60E00F94F5F187ECC2
:10EDA00092EE60E00F94F5F188ED92EE60E00F9442
:10EDB000F5F18FED92EE60E00F94F5F18AEE92EEB0
:10EDC00060E00F94F5F183E093EEBDCD87EC92EE19
:10EDD00062E00F94F5F181E40F947BF282E40F94EA
:10EDE0007BF283E40F947BF284E40F947BF285E45E
:10EDF0000F947BF286E40F947BF287E40F947BF20E
:10EE000088E40F947BF28AE40F947BF28BE40F94F6
:10EE10007BF28CE40F947BF299CD88ED92EE62E068
:10EE20000F94F5F1772473948824992409C48FED05
:10EE300092EE62E00F94F5F140910A0250910B02BC
:10EE400060910C0270910D0282E020E10F9491F22A
:10EE500080910A0290910B02A0910C02B0910D02D8
:10EE600080509F4FAF4FBF4F80930A0290930B0289
:10EE7000A0930C02B0930D0269CD8AEE92EE62E08F
:10EE80000F94F5F184EE90EE60E00F94F5F18FECC5
:10EE900091EE60E00F94F5F1662477244301CC5D98
:10EEA000DE4F19821882C452D140D401C301B695F5
:10EEB000A79597958795CA5DDE4F88839983AA8326
:10EEC000BB83C652D140CC5DDE4FA881B981C4520C
:10EED000D1401196CC5DDE4FB983A883C452D14096
:10EEE000CD0162E070E00F9434F2B0E2B093C6005E
:10EEF0008091C00086FFFCCF8091C0008064809329
:10EF0000C000EDE2E093C6008091C00086FFFCCF18
:10EF10008091C00080648093C000F0E2F093C6004E
:10EF20008091C00086FFFCCF8091C00080648093F8
:10EF3000C000CA5DDE4FE880F9800A811B81C6529D
:10EF4000D140BB27A12F902F8F2D0F940DF2CA5DBA
:10EF5000DE4F8881C652D1400F940DF2B0E2FB2EF5
:10EF6000F092C6008091C00086FFFCCF8091C00067
:10EF700080648093C0000DE30093C6008091C000C0
:10EF800086FFFCCF8091C00080648093C00010E2B7
:10EF90001093C6008091C00086FFFCCF8091C00016
:10EFA00080648093C0008BBEF3012791C65DDE4F65
:10EFB0002883CA52D140A22EBB24CC24DD2408943D
:10EFC000611C711C811C911C8BBEF3018791282E42
:10EFD0003324442455240894611C711C811C911C09
:10EFE0008BBEF3013791C55DDE4F3883CB52D140E4
:10EFF0000894611C711C811C911C8BBEF30147910C
:10F00000C45DDE4F4883CC52D140ADEFEA2EAFEF66
:10F01000FA2EAFEF0A2FAFEF1A2F6E0C7F1C801E57
:10F02000911E142D032DF22CEE24EA0CFB1C0C1D5A
:10F030001D1D0F940DF220E22093C6008091C000A8
:10F0400086FFFCCF8091C00080648093C000C65DC5
:10F05000DE4F8881CA52D1400F940DF230E23093D6
:10F06000C6008091C00086FFFCCF8091C000806404
:10F070008093C000C45DDE4F8881CC52D1400F9494
:10F080000DF240E24093C6008091C00086FFFCCFA5
:10F090008091C00080648093C000C55DDE4F888190
:10F0A000CB52D1400F940DF250E25093C6008091A4
:10F0B000C00086FFFCCF8091C00080648093C000B8
:10F0C0008FEFE8168FEFF80680E0080780E018075A
:10F0D00031F484E092EE60E00F94C2F1DFC0D80119
:10F0E000C7018070907CA070B0708050904CA040A0
:10F0F000B040D1F52FEF3FE340E050E0E222F322B1
:10F1000004231523CA5DDE4FA880B980CA80DB8046
:10F11000C652D140AE0CBF1CC01ED11EAA0CBB1CD7
:10F12000CC1CDD1C8EE092EE60E00F94C2F1BB2798
:10F13000A12F902F8F2D0F940DF28E2D0F940DF285
:10F1400030E23093C6008091C00086FFFCCF8091F2
:10F15000C00080648093C0004EE34093C60080915D
:10F16000C00086FFFCCF87C08EE09EEFA0E0B0E03D
:10F17000E822F9220A231B239CE0E91694E9F90608
:10F1800090E0090790E0190709F088C0C45DDE4FE0
:10F19000A881CC52D140EA2EFF2400E010E0102FCD
:10F1A0000F2DFE2CEE24C55DDE4FB881CB52D14031
:10F1B000EB0EF11C011D111DD601C501817090706F
:10F1C000A070B070DC0199278827E80EF91E0A1F8D
:10F1D0001B1F20EF30E040E050E0A222B322C42207
:10F1E000D52241E1AA0CBB1CCC1CDD1C4A95D1F7F1
:10F1F000EA0CFB1C0C1D1D1D81E090E0A0E0B0E0BE
:10F20000282239224A225B2235E1220C331C441C7D
:10F21000551C3A95D1F7E20CF31C041D151D57013E
:10F220006801AA0CBB1CCC1CDD1C85E192EE60E0E1
:10F230000F94C2F1C801AA27BB270F940DF2BB2778
:10F24000A12F902F8F2D0F940DF28E2D0F940DF274
:10F2500090E29093C6008091C00086FFFCCF809121
:10F26000C00080648093C000AEE3A093C60080918C
:10F27000C00086FFFCCF8091C00080648093C000F6
:10F28000C601AA27BB270F940DF2BB27AD2D9C2DDD
:10F290008B2D0F940DF28A2D0F940DF20F94DCF14B
:10F2A000CC5DDE4FE881F981C452D140F99709F471
:10F2B0004DCBF4E0EF2EF12C012D112D6E0C7F1CA7
:10F2C000801E911EF2CD83E093EE62E00F94F5F183
:10F2D0008AE192EE60E00F94C2F18091C00087FF56
:10F2E000FCCF1091C6001F751093C6008091C0001E
:10F2F00086FFFCCF8091C00080648093C0000F9493
:10F30000DCF1812F81548A3108F036C1163409F4BA
:10F3100095C0173490F4133409F44EC0143430F40B
:10F320001134F1F0123409F01DC130C0143409F465
:10F3300059C0153409F016C16BC01A3409F4C4C0A1
:10F340001B3438F4173409F48FC0183409F00AC19B
:10F35000A1C01B3409F4D2C01C3409F003C1E8C0B9
:10F360008FEF81B90DC082B1809582B980E090E0C5
:10F37000E0EDF7E03197F1F70196883C9105C1F790
:10F380008091C00087FFEFCF12B8EFC08FEF84B934
:10F390000DC085B1809585B980E090E0E0EDF7E0A3
:10F3A0003197F1F70196883C9105C1F78091C00033
:10F3B00087FFEFCF15B8D9C08FEF87B90DC088B1DF
:10F3C000809588B980E090E0E0EDF7E03197F1F7C3
:10F3D0000196883C9105C1F78091C00087FFEFCF6F
:10F3E00018B8C3C08FEF8AB90DC08BB180958BB9A7
:10F3F00080E090E0E0EDF7E03197F1F70196883C8E
:10F400009105C1F78091C00087FFEFCF1BB8ADC059
:10F410008FEF8DB90DC08EB180958EB980E090E0F0
:10F42000E0EDF7E03197F1F70196883C9105C1F7DF
:10F430008091C00087FFEFCF1EB897C08FEF80BBD1
:10F440000DC081B3809581BB80E090E0E0EDF7E0F6
:10F450003197F1F70196883C9105C1F78091C00082
:10F4600087FFEFCF11BA81C08FEF83BB0DC084B38C
:10F47000809584BB80E090E0E0EDF7E03197F1F714
:10F480000196883C9105C1F78091C00087FFEFCFBE
:10F4900014BA6BC08FEF809301010FC080910201FD
:10F4A00080958093020180E090E0E0EDF7E03197F5
:10F4B000F1F70196883C9105C1F78091C00087FF64
:10F4C000EDCF1092020151C08FEF809304010FC065
:10F4D0008091050180958093050180E090E0E0ED4A
:10F4E000F7E03197F1F70196883C9105C1F78091DB
:10F4F000C00087FFEDCF1092050137C08FEF8093DA
:10F5000007010FC08091080180958093080180E079
:10F5100090E0E0EDF7E03197F1F70196883C910536
:10F52000C1F78091C00087FFEDCF109208011DC088
:10F530008FEF80930A010FC080910B01809580931B
:10F540000B0180E090E0E0EDF7E03197F1F70196F4
:10F55000883C9105C1F78091C00087FFEDCF1092E4
:10F560000B0103C085E292EEEEC98091C00087FFD7
:10F57000FCCF8091C600EAC988E392EEE4C98CE131
:10F5800091EEE1C988249924933011F1943028F444
:10F59000913089F09230B8F408C0953061F195301F
:10F5A000F0F0963009F048C043C02B3109F042C951
:10F5B00091E06BE13FC96227C15DDE4F2883CF52E6
:10F5C000D14092E037C9B22FA0E0622793E032C960
:10F5D000822F90E0A82BB92B622794E02BC92E3004
:10F5E00009F039C3622795E0C05DDE4F19821882A9
:10F5F000C053D1401FC9E1E0F0E0EC0FFD1FC05D3A
:10F60000DE4F08811981C053D140E00FF11F2083E4
:10F610000F5F1F4FC05DDE4F19830883C053D14079
:10F6200062270A171B0709F005C9D80196E002C92D
:10F63000261709F010C303C0973009F0FBC87724E0
:10F640009981933109F412C19431C8F4963009F4C8
:10F65000D8C0973050F4923009F406C1933009F4C1
:10F660006DC0913009F059C253C0913109F477C08F
:10F67000923108F0BBC0903109F04FC2F5C098310B
:10F6800009F487C0993150F4953109F4EFC09531F0
:10F6900008F4C6C1963109F040C2C2C19A3109F4DA
:10F6A0006CC09A3108F491C09B3109F45BC09D3164
:10F6B00009F033C29D81903359F48F81882311F46E
:10F6C0009EE11CC0813011F091E018C098E916C08D
:10F6D000892F807591F0903539F4E0E0F0E089E011
:10F6E0008093570094910AC0983539F4E3E0F0E034
:10F6F00089E080935700949101C090E01A821B82A8
:10F700008D818C831D829E831F8227E030E009C299
:10F710001A8288E08B8381E48C8386E58D8382E581
:10F720008E8389E48F8383E5888780E589878FE5E9
:10F730008A8782E38B872BE030E0F3C18A818139AD
:10F7400041F0823941F0803911F48FE005C080E04A
:10F7500003C082E001C08AE01A828B8344C0772410
:10F76000739482C08D81882311F48EE12CC0813086
:10F7700011F081E028C088E926C01A82E1E0F0E0BB
:10F7800089E08093570084918B831C8224E030E0D1
:10F79000C8C18B81803589F48C81883039F4E2E0EE
:10F7A000F0E089E08093570084910DC0E0E0F0E044
:10F7B00089E080935700849106C0E3E0F0E089E09F
:10F7C0008093570084911A82DFCF8D81836C99E0FA
:10F7D000E1E0F0E0082E90935700E89507B600FCB2
:10F7E000FDCF1A821B8223E030E09BC180EC8A832C
:10F7F000CE5CDE4F188219821A821B82C253D1401E
:10F800008EC18A8190E0A0E0B0E0582F44273327D2
:10F8100022278B8190E0A0E0B0E0DC0199278827C7
:10F82000282B392B4A2B5B2B8D8190E0A0E0B0E098
:10F83000282B392B4A2B5B2B8C8190E0A0E0B0E089
:10F84000BA2FA92F982F8827282B392B4A2B5B2BCF
:10F85000220F331F441F551FC05EDE4F288339839C
:10F860004A835B83C052D1401A8259C13A81C95C34
:10F87000DE4F3883C753D140CA5CDE4F1882C6536F
:10F88000D1408B81C82EDD24CA5CDE4F488159816E
:10F89000C653D140C42AD52A933109F082C0CE5C28
:10F8A000DE4F88819981AA81BB81C253D1408050AB
:10F8B000904CA340B04030F583E0CE5CDE4FE88052
:10F8C000F9800A811B81C253D140F70100935B008C
:10F8D00080935700E89507B600FCFDCFCE5CDE4F65
:10F8E000088119812A813B81C253D14000501F4FAA
:10F8F0002F4F3F4FCE5CDE4F088319832A833B8313
:10F90000C253D140C05EDE4F488159816A817B81FC
:10F91000C052D140DE011B9631E08C9111962C91A2
:10F9200011971296C75CDE4F2883C953D140C85C3B
:10F93000DE4F1882C853D14090E0C85CDE4FE881AA
:10F94000F981C853D1408E2B9F2B0C01FA01609393
:10F950005B0030935700E89511244E5F5F4F6F4F67
:10F960007F4F0EEFE02E0FEFF02ECE0CDF1CC114F8
:10F97000D10499F685E0C05EDE4F088119812A81A5
:10F980003B81C052D140F80120935B008093570027
:10F99000E89507B600FCFDCF81E180935700E8951C
:10F9A00035C0C05EDE4F88819981AA81BB81C0527B
:10F9B000D140B695A795979587957C018601ABE0D8
:10F9C000AA2EB12CAC0EBD1E0BC0D5016D915D01F0
:10F9D000C7010F947FFE0894E11CF11C01501040F8
:10F9E0000115110591F7A60160E070E0440F551F65
:10F9F000661F771FC05EDE4FE880F9800A811B8199
:10FA0000C052D1404E0D5F1D601F711F1A82C05E33
:10FA1000DE4F488359836A837B83C052D1407FC0C5
:10FA2000FA80C55CDE4FF882CB53D140C65CDE4F16
:10FA30001882CA53D1408B81C82EDD24C65CDE4FAC
:10FA400008811981CA53D140C02AD12A1A828981DA
:10FA5000BE016D5F7F4F843121F59601C05EDE4FA0
:10FA6000E880F9800A811B81C052D1400BBFF701A9
:10FA700087919691DB018C9311969C936E5F7F4FDB
:10FA8000D801C7010296A11DB11DC05EDE4F88835B
:10FA90009983AA83BB83C052D14022503040F1F6F3
:10FAA00036C0C05EDE4F288139814A815B81C052F9
:10FAB000D1400894C108D108760100E010E0089414
:10FAC000C11CD11C0894E11CF11C011D111DE20E8A
:10FAD000F31E041F151F21BDBB27A52F942F832FB5
:10FAE00082BD2F5F3F4F4F4F5F4FF89A80B5DB01CC
:10FAF0008D93BD012E153F054007510761F7C05E8C
:10FB0000DE4F288339834A835B83C052D1409601FC
:10FB10002D5F3F4FFB01108204C080EC8A8322E0FE
:10FB200030E08BE18093C6008091C00086FFFCCF5F
:10FB30008091C00080648093C000C15DDE4FF88179
:10FB4000CF52D140F093C6008091C00086FFFCCF19
:10FB50008091C00080648093C000432F3093C60022
:10FB60008091C00086FFFCCF8091C00080648093AC
:10FB7000C000922F2093C6008091C00086FFFCCF6A
:10FB80008091C00080648093C0008EE08093C600A6
:10FB90008091C00086FFFCCF8091C000806480937C
:10FBA000C00065E1C15DDE4FE880CF52D1406E25D7
:10FBB00069276427FE01319610C090819093C6009A
:10FBC0008091C00086FFFCCF31968091C000806498
:10FBD0008093C0006927215030402115310569F715
:10FBE0006093C6008091C00086FFFCCF8091C0006A
:10FBF00080648093C00085B1805885B9772081F4F6
:10FC0000C15DDE4F0881CF52D1400F5FC15DDE4F35
:10FC10000883CF52D14090E0A0E0B0E00D941AF4F8
:10FC200027982F9880E090E020ED37E0F901319798
:10FC3000F1F7019684369105C9F700008091C00064
:10FC40008D7F8093C00081E180935700E895EE2777
:10FC5000FF270994FFCF90E00D941AF497FB092E2B
:10FC600007260AD077FD04D02ED006D000201AF443
:10FC7000709561957F4F0895F6F7909581959F4F08
:10FC80000895A1E21A2EAA1BBB1BFD010DC0AA1FDD
:10FC9000BB1FEE1FFF1FA217B307E407F50720F0F5
:10FCA000A21BB30BE40BF50B661F771F881F991F70
:10FCB0001A9469F760957095809590959B01AC01B9
:10FCC000BD01CF010895AA1BBB1B51E107C0AA1FAC
:10FCD000BB1FA617B70710F0A61BB70B881F991FED
:10FCE0005A95A9F780959095BC01CD010895F99991
:10FCF000FECF92BD81BDF89A992780B50895262F31
:10FD0000F999FECF1FBA92BD81BD20BD0FB6F89400
:0EFD1000FA9AF99A0FBE01960895F894FFCF63
:040000033000E000E9
:00000001FF
